:100000000C945D000C9485000C9485000C94850084
:100010000C9485000C9485000C9485000C9463036B
:100020000C9485000C9485000C9485000C9485003C
:100030000C9485000C943E030C9485000C94850070
:100040000C94F4020C9485000C94C2020C949C0253
:100050000C9485000C9485000C9485000C9485000C
:100060000C9485000C9485000000000024002700FB
:100070002A0000000000250028002B0004040404CE
:100080000404040402020202020203030303030342
:10009000010204081020408001020408102001021F
:1000A00004081020000000080002010000030407FB
:1000B0000000000000000000730411241FBECFEFF9
:1000C000D8E0DEBFCDBF11E0A0E0B1E0EAE4F1E1AD
:1000D00002C005900D92A231B107D9F721E0A2E14B
:1000E000B1E001C01D92AB3DB207E1F710E0CDE5F4
:1000F000D0E004C02197FE010E949D08CC35D107B5
:10010000C9F70E94C0040C94A3080C9400008091CD
:10011000CB019091CC01A091CD01B091CE01209165
:10012000C401213091F0223089F18091CB0190916E
:10013000CC01A091CD01B091CE01892B8A2B8B2BC4
:1001400019F481E08093C3010895AC01BD010097CB
:1001500021E0A207B10520F04FEF5FEF60E070E013
:100160005093890040938800841B950BA60BB70B16
:100170008093CB019093CC01A093CD01B093CE019D
:1001800080916F00826080936F00CFCFAC01BD0182
:100190008F3F9105A105B10529F020F04FEF50E008
:1001A00060E070E04093B300841B950BA60BB70B87
:1001B0008093CB019093CC01A093CD01B093CE015D
:1001C00080917000826080937000AFCF81E0809357
:1001D0002201809321010895AF92BF92CF92DF92C6
:1001E000EF92FF920F931F93CF93DF936C017B01EC
:1001F0008B01040F151FEB015E01AE18BF08C0177D
:10020000D10759F06991D601ED91FC910190F081EF
:10021000E02DC6010995892B79F7C501DF91CF91B2
:100220001F910F91FF90EF90DF90CF90BF90AF9014
:100230000895FC01538D448D252F30E0842F90E0EC
:10024000821B930B541710F0CF96089501970895D1
:10025000FC01918D828D981761F0A28DAE0FBF2F9A
:10026000B11D5D968C91928D9F5F9F73928F90E0F0
:1002700008958FEF9FEF0895FC01918D828D98175F
:1002800031F0828DE80FF11D858D90E008958FEF9C
:100290009FEF0895FC01918D228D892F90E0805C65
:1002A0009F4F821B91098F739927089586E291E0F1
:1002B0000E944A0121E0892B09F420E0822F089551
:1002C00080E090E0892B29F00E94560181110C9466
:1002D00000000895FC01A48DA80FB92FB11DA35AE9
:1002E000BF4F2C91848D90E001968F739927848F56
:1002F000A689B7892C93A089B1898C918370806479
:100300008C93938D848D981306C00288F389E02D19
:1003100080818F7D80830895EF92FF920F931F93CA
:10032000CF93DF93EC0181E0888F9B8D8C8D9813A8
:100330001AC0E889F989808185FF15C09FB7F894B4
:10034000EE89FF896083E889F98980818370806400
:1003500080839FBF81E090E0DF91CF911F910F914B
:10036000FF90EF900895F62E0B8D10E00F5F1F4F5A
:100370000F731127E02E8C8D8E110CC00FB607FC69
:10038000FACFE889F989808185FFF5CFCE010E94F7
:100390006A01F1CFEB8DEC0FFD2FF11DE35AFF4FFA
:1003A000F0829FB7F8940B8FEA89FB898081806285
:1003B000CFCFCF93DF93EC01888D8823B9F0AA8942
:1003C000BB89E889F9898C9185FD03C0808186FD10
:1003D0000DC00FB607FCF7CF8C9185FFF2CF80815F
:1003E00085FFEDCFCE010E946A01E9CFDF91CF9169
:1003F000089590E0FC01EC55FF4F2491FC01E0577B
:10040000FF4F3491FC01E458FF4FE491EE23C9F013
:10041000222339F0233001F1A8F4213019F12230E0
:1004200029F1F0E0EE0FFF1FEE58FF4FA591B491B8
:100430008FB7F894EC91611126C030953E233C9320
:100440008FBF08952730A9F02830C9F0243049F72C
:10045000809180008F7D03C0809180008F77809392
:100460008000DFCF84B58F7784BDDBCF84B58F7DEF
:10047000FBCF8091B0008F778093B000D2CF809176
:10048000B0008F7DF9CF3E2BDACFCF93DF9390E092
:10049000FC01E057FF4F249184589F4FFC01849149
:1004A0008823D1F090E0880F991FFC01E859FF4F95
:1004B000A591B491FC01EE58FF4FC591D491611103
:1004C0000EC09FB7F8948C91E22FE0958E238C9309
:1004D0002881E223E8839FBFDF91CF9108958FB7F2
:1004E000F894EC91E22BEC938FBFF6CF3FB7F894E2
:1004F0008091170190911801A0911901B0911A01F2
:1005000026B5A89B05C02F3F19F00196A11DB11D6E
:100510003FBFBA2FA92F982F8827BC01CD01620FAA
:10052000711D811D911D42E0660F771F881F991F65
:100530004A95D1F7089508951F920F920FB60F9222
:1005400011242F933F934F935F936F937F938F93D8
:100550009F93AF93BF93EF93FF9386E291E00E9446
:100560006A01FF91EF91BF91AF919F918F917F9120
:100570006F915F914F913F912F910F900FBE0F9010
:100580001F9018951F920F920FB60F9211242F9360
:100590008F939F93EF93FF93E0913601F091370192
:1005A0008081E0913C01F0913D0182FD1BC0908172
:1005B00080913F018F5F8F7320914001821741F03E
:1005C000E0913F01F0E0EA5DFE4F958F80933F019F
:1005D000FF91EF919F918F912F910F900FBE0F90F0
:1005E0001F9018958081F4CF1F920F920FB60F9233
:1005F00011242F933F938F939F93AF93BF93809139
:10060000130190911401A0911501B0911601309140
:10061000120123E0230F2D3758F50196A11DB11DBE
:10062000209312018093130190931401A09315015C
:10063000B09316018091170190911801A0911901B2
:10064000B0911A010196A11DB11D809317019093DD
:100650001801A0931901B0931A01BF91AF919F9116
:100660008F913F912F910F900FBE0F901F90189573
:1006700026E8230F0296A11DB11DD2CF1F920F9223
:100680000FB60F9211242F933F934F935F936F9365
:100690007F938F939F93AF93BF93EF93FF93F0E07C
:1006A000E0E00995FF91EF91BF91AF919F918F91FC
:1006B0007F916F915F914F913F912F910F900FBE5E
:1006C0000F901F9018951F920F920FB60F92112442
:1006D000CF92DF92EF92FF922F933F934F935F93CE
:1006E0006F937F938F939F93AF93BF93EF93FF93FA
:1006F000C090CF01D090D001E090D101F090D20114
:100700008091C401823009F04FC0C114D104E104CA
:10071000F10409F4D5C08091C301882309F45BC0BA
:10072000E091D701F091D801309741F08091D90143
:100730009091DA01009709F44CC009958091C701A6
:100740009091C801A091C901B091CA018F3F910554
:10075000A105B105B9F0B4F0F8948091C70190916A
:10076000C801A091C901B091CA018093CB019093B7
:10077000CC01A093CD01B093CE010E9487001092CE
:10078000C30178941C141D041E041F046CF421E0A2
:10079000C21AD108E108F108C092CF01D092D0016D
:1007A000E092D101F092D201FF91EF91BF91AF9110
:1007B0009F918F917F916F915F914F913F912F9179
:1007C000FF90EF90DF90CF900F900FBE0F901F9093
:1007D00018950995B3CFF8942091C4018091CB016D
:1007E0009091CC01A091CD01B091CE01223009F4BD
:1007F00047C08F3F9F4FA105B10510F40E948700AD
:100800008091CB019091CC01A091CD01B091CE010E
:10081000AC01BD01009721E0A207B10520F04FEF28
:100820005FEF60E070E0841B950BA60BB70B809325
:10083000CB019093CC01A093CD01B093CE018091D8
:10084000CB019091CC01A091CD01B091CE01892B2B
:100850008A2B8B2B91F58091C7019091C801A091B3
:10086000C901B091CA018093CB019093CC01A093B0
:10087000CD01B093CE0181E08093C301789494CFF1
:100880008F3F9105A105B10510F40E94870080916A
:10089000CB019091CC01A091CD01B091CE01AC01E2
:1008A000BD018F3F9105A105B10509F008F4BBCF4B
:1008B0004FEF50E060E070E0B6CF1092C301DECFA2
:1008C000F8948091C401813041F08230B9F6809172
:1008D00070008D7F80937000D1CF80916F008D7FED
:1008E00080936F00CBCFE6E2F1E01382128288EEB4
:1008F00093E0A0E0B0E084839583A683B78384E08F
:1009000091E09183808385EC90E09587848784ECE7
:1009100090E09787868780EC90E0918B808B81ECCC
:1009200090E0938B828B82EC90E0958B848B86ECAD
:1009300090E0978B868B118E128E138E148EE3ECC3
:10094000F1E082E08183108A118A128A138A158A63
:10095000148A178A168A108281E090E0938382833A
:1009600014821582168217821086118612861386CB
:100970008FEF9FEFDC0184879587A687B78708955F
:10098000789484B5826084BD84B5816084BD85B56A
:10099000826085BD85B5816085BD80916E00816076
:1009A00080936E001092810080918100826080931C
:1009B000810080918100816080938100809180001E
:1009C0008160809380008091B10084608093B10049
:1009D0008091B00081608093B00080917A00846043
:1009E00080937A0080917A00826080937A0080916F
:1009F0007A00816080937A0080917A008068809389
:100A00007A001092C10061E088E00E94450260E037
:100A10008EE00E94450261E089E00E94450261E0AB
:100A20008AE00E94450280E180938100109280005C
:100A300081E080931D0180E293E090931C018093FC
:100A40001B01909387008093860081E18093810051
:100A500061E08AE00E94450280918000806280937C
:100A6000800080911B0190911C01B0E0A0E0B69540
:100A7000A7959795879590938B0080938A00809196
:100A80001D018061809381008091C401F8948130C0
:100A900009F477C1823009F483C18093C40178944A
:100AA0008091C40118160CF04EC08FEF9FEFDC014F
:100AB0008093CF019093D001A093D101B093D20144
:100AC0008FE396E0A0E0B0E08093C7019093C80167
:100AD000A093C901B093CA018093CB019093CC013C
:100AE000A093CD01B093CE0181E090E09093C60138
:100AF0008093C501F89480E090E4ACE1B6E4809383
:100B0000D3019093D401A093D501B093D60186EE82
:100B100090E09093D8018093D7011092DA0110925F
:100B2000D9011092C3018091C401823009F047C1FC
:100B30008091B100887F9091C501892B8093B1008D
:100B40000E9487007894E0913601F091370182E0AD
:100B50008083E0913201F09133011082E091340101
:100B6000F09135018FEC808310923E01E0913A01C3
:100B7000F0913B0186E08083E0913801F0913901EA
:100B8000808180618083E0913801F091390180811A
:100B900088608083E0913801F0913901808180681C
:100BA0008083E0913801F091390180818F7D8083CD
:100BB00070EF272E33243394E8E46E2E7724739459
:100BC00001E010E0F0E2EF2EF3E0FF2EA0EFCA2EDE
:100BD000DD24D394B8E4AB2EBB24B39455245394B2
:100BE00060E0862E60E0962E51E1452E86E291E08F
:100BF0000E944A011816190684F480912501882361
:100C000021F080912401811108C086E291E00E94C8
:100C1000280180932301509225018091220188238D
:100C200009F440C0809123018823D1F190912501DE
:100C3000992321F01092240110921F0190E020913D
:100C4000240102C0959587952A95E2F750921D01DF
:100C500080FFC1C0B0921C01A0921B01709287005E
:100C6000609286004092810080911B0190911C014E
:100C7000B0E0A0E0B695A7959795879590938B00E7
:100C800080938A0061E089E00E94F901809124014B
:100C9000873008F0BAC0109225018F5F809324013D
:100CA0001092220180912101882309F45EC0C5E0E1
:100CB000D0E060E070E0CB0130E430937C00209124
:100CC0007A00206420937A0020917A0026FDFCCFE0
:100CD0002091780030917900213032400CF4BAC074
:100CE00020E030E040E85FE30E944507219721F7CC
:100CF000D091200120E030E040EA50E40E94B107AA
:100D000020E030E040E05FE30E94740860E01816E5
:100D10007CF480911F01980102C0220F331F8A9535
:100D2000E2F7C90190911E01892B80931E0161E0B9
:100D3000C0911E01CC2379F086E291E00E948C01E3
:100D4000C13009F08BC0D11106C0C09320011092B0
:100D50001F0110921E0180911F01873008F087C08B
:100D60008F5F80931F01109221018114910409F477
:100D70003DCF0E945601882309F436CF0E9400001F
:100D80002DCF109280001092810090918100986088
:100D900090938100909181009160909381007DCE2D
:100DA0001092B0001092B1009091B00092609093B8
:100DB000B0009091B10091609093B1006ECE8130FF
:100DC00009F0BECE80918100887F9091C501892B6A
:100DD00080938100B5CED0921C01C0921B0130924D
:100DE0008700209286004092810080911B019091A3
:100DF0001C01B0E0A0E0B695A795979587959093D4
:100E00008B0080938A0060E03ECF10922401109204
:100E1000230150921D01F0921C01E0921B0120E27F
:100E200033E03093870020938600409281008091C8
:100E30001B0190911C01B0E0A0E0B695A795979595
:100E4000879590938B0080938A0060E089E00E94F0
:100E5000F90126CF20E030E0A90146CFC43009F0E7
:100E60007ACFDD2309F477CF1092200174CF6091FF
:100E70001E01662321F086E291E00E948C0110920F
:100E80001F0110921E016FCF5058BB27AA270E9446
:100E90005C070C943A080E942C0838F00E94330832
:100EA00020F039F49F3F19F426F40C9429080EF42D
:100EB000E095E7FB0C942308E92F0E944B0858F3B8
:100EC000BA17620773078407950720F079F4A6F52F
:100ED0000C946D080EF4E0950B2EBA2FA02D0B018B
:100EE000B90190010C01CA01A0011124FF27591B6F
:100EF00099F0593F50F4503E68F11A16F040A22F75
:100F0000232F342F4427585FF3CF469537952795E5
:100F1000A795F0405395C9F77EF41F16BA0B620BE4
:100F2000730B840BBAF09150A1F0FF0FBB1F661F2B
:100F3000771F881FC2F70EC0BA0F621F731F841F6E
:100F400048F4879577956795B795F7959E3F08F094
:100F5000B0CF9395880F08F09927EE0F9795879556
:100F600008950E94C5070C943A080E94330858F06F
:100F70000E942C0840F029F45F3F29F00C942308CC
:100F800051110C946E080C9429080E944B0868F3C8
:100F90009923B1F3552391F3951B550BBB27AA2732
:100FA00062177307840738F09F5F5F4F220F331F6C
:100FB000441FAA1FA9F335D00E2E3AF0E0E832D034
:100FC00091505040E695001CCAF72BD0FE2F29D037
:100FD000660F771F881FBB1F261737074807AB0709
:100FE000B0E809F0BB0B802DBF01FF2793585F4F7E
:100FF0003AF09E3F510578F00C9423080C946E084B
:101000005F3FE4F3983ED4F3869577956795B7955F
:10101000F7959F5FC9F7880F911D9695879597F96A
:101020000895E1E0660F771F881FBB1F62177307E3
:101030008407BA0720F0621B730B840BBA0BEE1FF8
:1010400088F7E095089597F99F6780E870E060E081
:1010500008959FEF80EC089500240A941616170651
:1010600018060906089500240A9412161306140699
:1010700005060895092E0394000C11F4882352F0FC
:10108000BB0F40F4BF2B11F460FF04C06F5F7F4FB4
:101090008F4F9F4F089557FD9058440F551F59F09B
:1010A0005F3F71F04795880F97FB991F61F09F3F55
:1010B00079F087950895121613061406551FF2CF7E
:1010C0004695F1DF08C0161617061806991FF1CFCE
:1010D00086957105610508940895E894BB276627F5
:1010E0007727CB0197F908950E94790808F48FEFCC
:1010F0000895990F0008550FAA0BE0E8FEEF1616A9
:101100001706E807F907C0F012161306E407F507FB
:1011100098F0621B730B840B950B39F40A2661F06F
:10112000232B242B252B21F408950A2609F4A14012
:10113000A6958FEF811D811D0895EE0FFF1F05906D
:0A114000F491E02D0994F894FFCF1C
:10114A00000000008C01EC001901D9014A012801B4
:02115A003C0156
:00000001FF
